{
  "_format": "hh-sol-artifact-1",
  "contractName": "Unoma",
  "sourceName": "contracts/Unoma.sol",
  "abi": [
    {
      "anonymous": false,
      "inputs": [
        {
          "indexed": false,
          "internalType": "address",
          "name": "profileAddress",
          "type": "address"
        },
        {
          "indexed": false,
          "internalType": "string",
          "name": "podcastName",
          "type": "string"
        }
      ],
      "name": "PodcastNameUpdated",
      "type": "event"
    },
    {
      "anonymous": false,
      "inputs": [
        {
          "indexed": false,
          "internalType": "address",
          "name": "profileAddress",
          "type": "address"
        },
        {
          "indexed": false,
          "internalType": "string",
          "name": "podcastName",
          "type": "string"
        },
        {
          "indexed": false,
          "internalType": "string",
          "name": "postThumbnailUrl",
          "type": "string"
        },
        {
          "indexed": false,
          "internalType": "string",
          "name": "postAudioUrl",
          "type": "string"
        },
        {
          "indexed": false,
          "internalType": "string",
          "name": "postTitle",
          "type": "string"
        }
      ],
      "name": "Posted",
      "type": "event"
    },
    {
      "anonymous": false,
      "inputs": [
        {
          "indexed": false,
          "internalType": "address",
          "name": "profileAddress",
          "type": "address"
        },
        {
          "indexed": false,
          "internalType": "string",
          "name": "profileThumbnailUrl",
          "type": "string"
        },
        {
          "indexed": false,
          "internalType": "string",
          "name": "profileName",
          "type": "string"
        },
        {
          "indexed": false,
          "internalType": "string",
          "name": "profileBio",
          "type": "string"
        }
      ],
      "name": "ProfileUpdated",
      "type": "event"
    },
    {
      "inputs": [
        {
          "internalType": "bytes32",
          "name": "",
          "type": "bytes32"
        }
      ],
      "name": "idToPostManager",
      "outputs": [
        {
          "internalType": "address",
          "name": "profileAddress",
          "type": "address"
        },
        {
          "internalType": "string",
          "name": "podcastName",
          "type": "string"
        },
        {
          "internalType": "string",
          "name": "postThumbnailUrl",
          "type": "string"
        },
        {
          "internalType": "string",
          "name": "postAudioUrl",
          "type": "string"
        },
        {
          "internalType": "string",
          "name": "postAudioName",
          "type": "string"
        }
      ],
      "stateMutability": "view",
      "type": "function"
    },
    {
      "inputs": [
        {
          "internalType": "bytes32",
          "name": "",
          "type": "bytes32"
        }
      ],
      "name": "idToProfileManagerUpdater",
      "outputs": [
        {
          "internalType": "address",
          "name": "profileAddress",
          "type": "address"
        },
        {
          "internalType": "string",
          "name": "profileThumbnailUrl",
          "type": "string"
        },
        {
          "internalType": "string",
          "name": "profileName",
          "type": "string"
        },
        {
          "internalType": "string",
          "name": "profileBio",
          "type": "string"
        }
      ],
      "stateMutability": "view",
      "type": "function"
    },
    {
      "inputs": [
        {
          "internalType": "bytes32",
          "name": "",
          "type": "bytes32"
        }
      ],
      "name": "idToUpdatePodcastNameManager",
      "outputs": [
        {
          "internalType": "address",
          "name": "profileAddress",
          "type": "address"
        },
        {
          "internalType": "string",
          "name": "podcastName",
          "type": "string"
        }
      ],
      "stateMutability": "view",
      "type": "function"
    },
    {
      "inputs": [
        {
          "internalType": "string",
          "name": "podcastName",
          "type": "string"
        },
        {
          "internalType": "string",
          "name": "thumbnailUrl",
          "type": "string"
        },
        {
          "internalType": "string",
          "name": "audioUrl",
          "type": "string"
        },
        {
          "internalType": "string",
          "name": "audioName",
          "type": "string"
        }
      ],
      "name": "post",
      "outputs": [],
      "stateMutability": "nonpayable",
      "type": "function"
    },
    {
      "inputs": [
        {
          "internalType": "string",
          "name": "podcastName",
          "type": "string"
        }
      ],
      "name": "updatePodcastName",
      "outputs": [],
      "stateMutability": "nonpayable",
      "type": "function"
    },
    {
      "inputs": [
        {
          "internalType": "string",
          "name": "profileThumbnailUrl",
          "type": "string"
        },
        {
          "internalType": "string",
          "name": "profileName",
          "type": "string"
        },
        {
          "internalType": "string",
          "name": "profileBio",
          "type": "string"
        }
      ],
      "name": "updateProfile",
      "outputs": [],
      "stateMutability": "nonpayable",
      "type": "function"
    }
  ],
  "bytecode": "0x608060405234801561001057600080fd5b50610dc3806100206000396000f3fe608060405234801561001057600080fd5b50600436106100625760003560e01c80631105a5eb14610067578063416cf1ef14610083578063874bce2b146100b6578063a55b9693146100e7578063c6ebb2b614610103578063db261b1e14610137575b600080fd5b610081600480360381019061007c91906107c7565b610153565b005b61009d600480360381019061009891906108b1565b61019e565b6040516100ad94939291906109b8565b60405180910390f35b6100d060048036038101906100cb91906108b1565b610386565b6040516100de929190610a12565b60405180910390f35b61010160048036038101906100fc9190610a42565b610452565b005b61011d600480360381019061011891906108b1565b6104a3565b60405161012e959493929190610b2b565b60405180910390f35b610151600480360381019061014c9190610b9a565b610719565b005b7f6420daf1b58438e85465ef21dee378d307a509caab491149e3f066c5caf1266d3387878787878760405161018e9796959493929190610c23565b60405180910390a1505050505050565b60006020528060005260406000206000915090508060000160009054906101000a900473ffffffffffffffffffffffffffffffffffffffff16908060010180546101e790610cb2565b80601f016020809104026020016040519081016040528092919081815260200182805461021390610cb2565b80156102605780601f1061023557610100808354040283529160200191610260565b820191906000526020600020905b81548152906001019060200180831161024357829003601f168201915b50505050509080600201805461027590610cb2565b80601f01602080910402602001604051908101604052809291908181526020018280546102a190610cb2565b80156102ee5780601f106102c3576101008083540402835291602001916102ee565b820191906000526020600020905b8154815290600101906020018083116102d157829003601f168201915b50505050509080600301805461030390610cb2565b80601f016020809104026020016040519081016040528092919081815260200182805461032f90610cb2565b801561037c5780601f106103515761010080835404028352916020019161037c565b820191906000526020600020905b81548152906001019060200180831161035f57829003601f168201915b5050505050905084565b60016020528060005260406000206000915090508060000160009054906101000a900473ffffffffffffffffffffffffffffffffffffffff16908060010180546103cf90610cb2565b80601f01602080910402602001604051908101604052809291908181526020018280546103fb90610cb2565b80156104485780601f1061041d57610100808354040283529160200191610448565b820191906000526020600020905b81548152906001019060200180831161042b57829003601f168201915b5050505050905082565b7f7c3e20400165a52c1c60823123ad302836e0fc4b2f0be25f358e81b92248fac433898989898989898960405161049199989796959493929190610ce4565b60405180910390a15050505050505050565b60026020528060005260406000206000915090508060000160009054906101000a900473ffffffffffffffffffffffffffffffffffffffff16908060010180546104ec90610cb2565b80601f016020809104026020016040519081016040528092919081815260200182805461051890610cb2565b80156105655780601f1061053a57610100808354040283529160200191610565565b820191906000526020600020905b81548152906001019060200180831161054857829003601f168201915b50505050509080600201805461057a90610cb2565b80601f01602080910402602001604051908101604052809291908181526020018280546105a690610cb2565b80156105f35780601f106105c8576101008083540402835291602001916105f3565b820191906000526020600020905b8154815290600101906020018083116105d657829003601f168201915b50505050509080600301805461060890610cb2565b80601f016020809104026020016040519081016040528092919081815260200182805461063490610cb2565b80156106815780601f1061065657610100808354040283529160200191610681565b820191906000526020600020905b81548152906001019060200180831161066457829003601f168201915b50505050509080600401805461069690610cb2565b80601f01602080910402602001604051908101604052809291908181526020018280546106c290610cb2565b801561070f5780601f106106e45761010080835404028352916020019161070f565b820191906000526020600020905b8154815290600101906020018083116106f257829003601f168201915b5050505050905085565b7fa481821415d4ff6b514f4fe9d32be80cea3d005ca361842c673254e13749296933838360405161074c93929190610d5b565b60405180910390a15050565b600080fd5b600080fd5b600080fd5b600080fd5b600080fd5b60008083601f84011261078757610786610762565b5b8235905067ffffffffffffffff8111156107a4576107a3610767565b5b6020830191508360018202830111156107c0576107bf61076c565b5b9250929050565b600080600080600080606087890312156107e4576107e3610758565b5b600087013567ffffffffffffffff8111156108025761080161075d565b5b61080e89828a01610771565b9650965050602087013567ffffffffffffffff8111156108315761083061075d565b5b61083d89828a01610771565b9450945050604087013567ffffffffffffffff8111156108605761085f61075d565b5b61086c89828a01610771565b92509250509295509295509295565b6000819050919050565b61088e8161087b565b811461089957600080fd5b50565b6000813590506108ab81610885565b92915050565b6000602082840312156108c7576108c6610758565b5b60006108d58482850161089c565b91505092915050565b600073ffffffffffffffffffffffffffffffffffffffff82169050919050565b6000610909826108de565b9050919050565b610919816108fe565b82525050565b600081519050919050565b600082825260208201905092915050565b60005b8381101561095957808201518184015260208101905061093e565b83811115610968576000848401525b50505050565b6000601f19601f8301169050919050565b600061098a8261091f565b610994818561092a565b93506109a481856020860161093b565b6109ad8161096e565b840191505092915050565b60006080820190506109cd6000830187610910565b81810360208301526109df818661097f565b905081810360408301526109f3818561097f565b90508181036060830152610a07818461097f565b905095945050505050565b6000604082019050610a276000830185610910565b8181036020830152610a39818461097f565b90509392505050565b6000806000806000806000806080898b031215610a6257610a61610758565b5b600089013567ffffffffffffffff811115610a8057610a7f61075d565b5b610a8c8b828c01610771565b9850985050602089013567ffffffffffffffff811115610aaf57610aae61075d565b5b610abb8b828c01610771565b9650965050604089013567ffffffffffffffff811115610ade57610add61075d565b5b610aea8b828c01610771565b9450945050606089013567ffffffffffffffff811115610b0d57610b0c61075d565b5b610b198b828c01610771565b92509250509295985092959890939650565b600060a082019050610b406000830188610910565b8181036020830152610b52818761097f565b90508181036040830152610b66818661097f565b90508181036060830152610b7a818561097f565b90508181036080830152610b8e818461097f565b90509695505050505050565b60008060208385031215610bb157610bb0610758565b5b600083013567ffffffffffffffff811115610bcf57610bce61075d565b5b610bdb85828601610771565b92509250509250929050565b82818337600083830152505050565b6000610c02838561092a565b9350610c0f838584610be7565b610c188361096e565b840190509392505050565b6000608082019050610c38600083018a610910565b8181036020830152610c4b81888a610bf6565b90508181036040830152610c60818688610bf6565b90508181036060830152610c75818486610bf6565b905098975050505050505050565b7f4e487b7100000000000000000000000000000000000000000000000000000000600052602260045260246000fd5b60006002820490506001821680610cca57607f821691505b60208210811415610cde57610cdd610c83565b5b50919050565b600060a082019050610cf9600083018c610910565b8181036020830152610d0c818a8c610bf6565b90508181036040830152610d2181888a610bf6565b90508181036060830152610d36818688610bf6565b90508181036080830152610d4b818486610bf6565b90509a9950505050505050505050565b6000604082019050610d706000830186610910565b8181036020830152610d83818486610bf6565b905094935050505056fea2646970667358221220a08dc60d0b8bbf32c2532005e1950d6be1566e7c3ee7e05f923313c85ed0234264736f6c63430008090033",
  "linkReferences": {},
  "deployedLinkReferences": {}
}